S011000052544F532064656D6F2E7372656306
S214400000B8114020E5014000E1014000E101400018
S214400010E1014000E1014000E10140000000000035
S21440002000000000000000000000000051124000E8
S214400030E101400000000000F1124000551340006E
S214400040E1014000E1014000E1014000E1014000E3
S214400050E1014000E1014000E1014000E1014000D3
S214400060E101400000000000E1014000E1014000E5
S214400070E1014000E1014000350B4000E101400055
S214400080E1014000E1014000E1014000E1014000A3
S214400090E1014000E1014000E1014000E101400093
S2144000A0E1014000E1014000E1014000E101400083
S2144000B0E1014000E1014000E1014000E101400073
S2144000C0E1014000E1014000E1014000E101400063
S2144000D0E1014000E1014000E1014000E101400053
S2144000E0E1014000E1014000E1014000E101400043
S2144000F0E1014000E1014000E1014000E101400033
S214400100E1014000E1014000E1014000E101400022
S214400110E1014000E1014000000000000000000056
S214400120E1014000E1014000E1014000E101400002
S214400130E1014000E1014000E1014000E1014000F2
S214400140E1014000E1014000E1014000E1014000E2
S214400150E1014000E1014000E1014000E1014000D2
S214400160E1014000E101400010B5054C237833B969
S214400170044B13B10448AFF300800123237010BD35
S2144001800800402000000000083840000C4B43B1F7
S2144001900C480D4910B5AFF300800C48036823B9EE
S2144001A010BD0A48036833B97047094B002BF7D097
S2144001B0BDE810401847064B002BF5D0184700BF47
S2144001C000000000083840000C004020083840007E
S2144001D00000000008B5014B984708BD25034000C5
S2144001E0FEE7000008B5174B174A9A4210D0174B47
S2144001F0144A9A420CD2013B9B1A23F00303043361
S2144002001344114951F8040B42F8040B9A42F9D1B1
S2144002100F4B104A9A420AD2013B9B1A23F0030323
S21440022004331344002142F8041B9342FBD10A4A8C
S2144002300A4B23F07F039360094B9847094B984736
S214400240FEE700BF0000402008384000080040207D
S214400250B80B40200800402000ED00E000004000C1
S214400260F5344000A50D40000F4B1A6F22F40012E3
S2144002701A675A6F22F400125A674FF400125A60F7
S2144002800A4AD2F8143143F01003C2F81431084B2E
S2144002901A6F42F010021A675A6F42F010025A67FD
S2144002A010225A60704700BF000E0E400080084083
S2144002B000100E40044B9B6913F4804F03D14FF45B
S2144002C08042014B1A61704700060E4030B583B03D
S2144002D00B4B98470B4B98470B4C009010230B4A00
S2144002E00B4920460B4DA847C0220B4B83F80E23E4
S2144002F020460A4B98470A4B984703B030BD00BF8C
S214400300B5024000310B40006C0B40205C0B402097
S214400310008002406105400000E100E055064000D4
S2144003206902400008B50C4B98470C4B9B6913F488
S214400330806F03D14FF48062084B1A61084A5368B5
S21440034043F400435360074B4FF400021A631A61AC
S2144003501A60054B984708BD7907400000060E40D6
S21440036050180E40000E0E40CD024000EFF31083B2
S214400370036072B6BFF35F8F7047BFF35F8F03684B
S21440038083F310887047000070B5164604460D4645
S214400390002818BF002914BF012000203422044939
S2144003A0044B98472368324629462046984770BDF6
S2144003B0843540008106400070B5164604460D461A
S2144003C0002818BF002914BF012000203D22044900
S2144003D0044B98476368324629462046984770BD86
S2144003E0843540008106400008B53C30014B9847B4
S2144003F008BD00BF8D10400008B54030014B9847FF
S21440040008BD00BF8D10400010B5C36A43B1028ED0
S214400410541C04869954028E438E9A4204D210BDD0
S2144004201C30044B984710BD0023C3623C30024B3F
S2144004309847F4E7150740008D10400010B5044675
S214400440038F428F9A4209D0426B591C0187D15C78
S214400450044B98472046044B984710BD034B98479B
S21440046010BD00BF3D0A4000610A4000850A4000BA
S21440047038B504461546C163A4F842200023A0F8C8
S21440048040300830064B98474FF0FF3104F14800A3
S214400490044B984700280CBF28466FF0070038BD2D
S2144004A0610A4000D11040002DE9F04182B0044678
S2144004B090460E46081C18BF01204FF49272214900
S2144004C0214B984704F124052846204B9847404541
S2144004D013D3B8F1000F0CD0344608F1FF339BB26B
S2144004E001331E441A4F21462846B8470134B442C9
S2144004F0F9D1404602B0BDE8F08101A8154B9847B7
S21440050000232387A4F83A806663104E104F06E017
S214400510616B238F5A1C228719442846B8472846C1
S214400520B0470028F4D101A80B4B98474FF0FF3155
S21440053004F14400094B98470028DAD06FF00700D2
S214400540D8E700BF98354000810640005507400078
S214400550D10640006D0340007B034000D1104000B0
S2144005602DE9F84315461E4604460F46002818BF98
S214400570002914BF0120002005D0002A18BF002BF8
S21440058014BF0120002040222549264B984732467A
S214400590294604F12400244B984700283DD104F115
S2144005A0440600213046214B9847051E28DB04F1BF
S2144005B04809002148461D4B9847051E23DB04F199
S2144005C00808394640461A4B98470546F8B900236E
S2144005D0636323876387174B6360174B2360174B10
S2144005E0A360174BE360174B2361174B63610122EF
S2144005F011464046154CA047012203214046A047DD
S2144006002846BDE8F8834846114B9847F8E74846E1
S2144006100F4CA0473046A047F2E76FF00C05EFE7D7
S214400620983540008106400089064000551040003D
S21440063055094000A9044000710440003D044000B4
S21440064009044000F9034000E9034000AD0A4000B9
S214400650E910400010B504467B220649003018BF1A
S2144006600120054B984704F10800044B98470020AA
S21440067010BD00BF9835400081064000090A400082
S21440068000B900BE7047000070B50E4615460029FA
S21440069018BF002A14BF01230023044628220A4913
S2144006A000280CBF002003F00100084B98476B1E43
S2144006B01D4205D163600020A060E060266070BDEA
S2144006C06FF00C0070BD00BFB4354000810640009E
S2144006D038B504460D46002818BF002914BF01202F
S2144006E00020402209490A4B9847A368E2689A428C
S2144006F009D0626813402268D35C2B70A36801332C
S214400700A360002038BD6FF0090038BDB435400006
S2144007108106400038B50D46044651220B4900304C
S21440072018BF01200A4B9847E36862681340226866
S214400730D554E3686168A2689A1A8A4201D9591A60
S214400740A1600133E360002038BD00BFB4354000EF
S2144007508106400010B5044667220549003018BFA0
S2144007600120044B9847E068A368C01A10BD00BF3C
S214400770B43540008106400000B583B001A80E4B5A
S21440078098470E4AD2F8883043F47003C2F888304F
S214400790BFF34F8FBFF36F8F01A8094B9847094AA5
S2144007A0136823F4706343F4A0631360064B9847C2
S2144007B003B05DF804FB00BF6D03400000ED00E0B1
S2144007C07B034000000C0E40CD0740001D490A6ADE
S2144007D022F002021C4B13430B620A46936E13F040
S2144007E0010FFBD0174B196A184A0A431A62996AD6
S2144007F0174A0A409A62174A9A621A46936E13F04C
S214400800020FFBD00F4A136B23F070031363936EF3
S21440081013F0080FFBD00B4A136B23F4407343F4DA
S21440082080731363936E13F0080FFBD0054A136B67
S21440083023F0030343F002031363936E13F0080F91
S214400840FBD0704700060E40013E370000003701DF
S214400850FFFF00F8013F182010B5044640F22F2253
S2144008600549003018BF0120044B984704482044EF
S214400870C0F3873010BD00BFE4354000810640001D
S21440088000C0FDBF10B504464FF42D720949003034
S21440089018BF0120084B98472046084B9847012828
S2144008A005D040F2BE2203490020034B9847002063
S2144008B010BD00BFE43540008106400059084000A6
S2144008C010B5044640F2CB221149003018BF012033
S2144008D0104B98472046104B9847104BC4F8E430CE
S2144008E0002363606362A362AC2222604FF480728E
S2144008F022604FF40022226000EB4000084A02EBE0
S214400900800042686260074A2262184610BD00BFF7
S214400910E4354000810640008508400000415355BC
S214400920D8354000D003040010B50446AE22064930
S214400930003018BF0120054B98472046044B984787
S2144009400D30C0B210BD00BFE43540008106400007
S2144009505908400070B50C460646D122234900305F
S21440096018BF0120224B98472046224B9847054601
S21440097008B1284670BDB4611F4B9C4233D0204618
S2144009801E4B984743B2002B0DDB5B0900F01F005F
S214400990012202FA00F02033194A42F82300BFF33E
S2144009A04F8FBFF36F8F2046144B984743B2002BB0
S2144009B009DB5B0900F01F00012202FA00F06033F9
S2144009C00F4A42F8230020460C4B984743B2002B70
S2144009D0CFDB5B0900F01F00012202FA00F0084A54
S2144009E042F82300C5E7074B1E60C8E7E4354000E1
S2144009F081064000C10840000080024029094000AE
S214400A0000E100E02400402070B50A4E044640F263
S214400A1013123146003018BF0120074DA847A4697D
S214400A204FF43D723146201C18BF0120A847502382
S214400A30236070BDE43540008106400038B50C4662
S214400A40054640F2B5120449003018BF0120034B5A
S214400A509847AB69DC6138BDE4354000810640000C
S214400A6010B5044640F21D220449003018BF01204C
S214400A70034B9847A36902229A6010BDE4354000B4
S214400A808106400010B5044640F226220549003053
S214400A9018BF0120044B9847A3694FF400729A6030
S214400AA010BD00BFE43540008106400070B50C46DE
S214400AB0164605464FF414721A49003018BF0120F6
S214400AC0194B9847BEB114F0FD0F04D0012C0AD044
S214400AD0032C0CD070BDAB6902229A60AB694FF410
S214400AE000729A6070BDAB6901229A6070BDAB69B6
S214400AF00E4A9A6070BD14F0FD0F07D0012C0DD041
S214400B00032CE7D1AB69094ADA60E3E7AB69022216
S214400B10DA60AB694FF40072DA6070BDAB690122EF
S214400B20DA6070BDE435400081064000E000000118
S214400B300020704710B5254B1C6840F28922244996
S214400B40201C18BF0120234B9847A3695A6912F00E
S214400B50020F03D01A6912F0020F18D15A6912F424
S214400B60007F03D01A6912F4007F16D15A6912F03A
S214400B70010F1FD01A6912F0010F1BD05969164A8F
S214400B80114211D09A694FF480721A6010BD022249
S214400B90DA6023682046984710BD4FF40072DA604A
S214400BA0A3682046984710BD99696368C9B2204635
S214400BB0984710BD5969084A114200D110BD4FF4FC
S214400BC080721A60E36820469847F7E72400402082
S214400BD0E435400081064000E000000108B5074CBF
S214400BE04FF4FA76064DA36B03F40003DA4302F49F
S214400BF00002226363633046A847F4E7000E0E40C7
S214400C005D28400010B50446034B984782B2214603
S214400C100248034B984710BD733540006C0B40208C
S214400C208903400010B500231A461946024800685A
S214400C30024CA04710BD00BF280040204519400088
S214400C40F0B583B0494D4A4E4A4F0AE070684A4B69
S214400C5098474A4C4FF0FF313068494B9847002838
S214400C607DD100238DF804308DF80530454C0122A7
S214400C700DF103012846A04710F1080FF7D09DF864
S214400C8003308DF804304D3B262B66D801A252F82F
S214400C9023F000BF4B0D40005B0D40005B0D400055
S214400CA05B0D40005B0D40005B0D40005B0D40005F
S214400CB05B0D40005B0D40005B0D40005B0D40004F
S214400CC05B0D40005B0D40005B0D40005B0D40003F
S214400CD05B0D40005B0D40005B0D40005B0D40002F
S214400CE05B0D40004D0C40005B0D40005B0D40002E
S214400CF05B0D40005B0D40005B0D40005B0D40000F
S214400D005B0D40005B0D40005B0D40005B0D4000FE
S214400D105B0D4000410D40005B0D40005B0D400008
S214400D205B0D40005B0D40005B0D4000310D400008
S214400D307068154B98474FF400033B63134C89E7A4
S214400D40B0680D4B9847124C84E7B0680E4B9847F6
S214400D501048114B9847114C7CE701AC7AE7204687
S214400D600D4B98470E4B98477BE700BF6C0B4020D7
S214400D7028004020000E0E40C9244000283640007F
S214400D80F11E4000B9034000592940004436400057
S214400D906C36400088364000050C400084364000E3
S214400DA0250C400010B582B0194B98470120194BCE
S214400DB09847194B186060B1184B01930223009373
S214400DC000234B2216491748174CA047012801D04C
S214400DD0FEE7FEE7154B01930123009300231B22F9
S214400DE013491448104CA047012800D0FEE7124B88
S214400DF00193002300934022104911480A4CA04713
S214400E00012800D0FEE70F4B9847002002B010BDE7
S214400E10D5014000351B40002800402030004020CF
S214400E20A4364000B50F4000792240002C004020F8
S214400E30AC364000DD0B400034004020B036400069
S214400E40410C40006925400041B1F0B484B00A46E8
S214400E501D4C01AE04F12807354609E030230370E7
S214400E60012070470023303305F8013BBC420CD0CC
S214400E7054F8041B8A42F5D3521A01239142F2D801
S214400E80521A01330A2BF9D1EDE79DF80430302B86
S214400E9009D1012316F8012F302A05D101330A2B38
S214400EA0F8D100200DE0002304AAD1180D390446DD
S214400EB0024611F8010F02F8010B101B0133092BF3
S214400EC0F7DD04B0F0BC7047003640000EB42DE9A4
S214400ED0F04382B0054609AB53F8044B0193002615
S214400EE0334F4FF02D082378002B59D0252B04D0B4
S214400EF005F8013B01340136F5E76278A2F1630359
S214400F00122B48D8DFE803F00A13474747474747BE
S214400F10474747474747474733472900019B1A1DDE
S214400F2001921B6805F8013B02340136DBE7019B62
S214400F301A1D01921968002905DB2846B847054462
S214400F4006440234CFE705F1010985F800800136F2
S214400F5049424846B8474D46F1E7019B1A1D019263
S214400F6019682846B847064405440234BBE7019B47
S214400F701A1D019219680B785BB12A46751B02F858
S214400F80013B561911F8013F002BF8D102341546A3
S214400F90A9E72A46FAE705F8012B02340136A2E70C
S214400FA02B70304602B0BDE8F04303B0704700BF38
S214400FB0490E400080B582B0194E1A4F06F1100512
S214400FC003E041F28830184B98474FF0FF313068C5
S214400FD0B8470028F5D04A230193322300935B2379
S214400FE01B2212492846DFF86880C0472846104C26
S214400FF0A047104B984702460F492846C047284608
S214401000A0470E48A0470E48A04728460D4B984795
S2144010102846A0470C48A0470C4B9847D1E700BF4E
S21440102028004020F11E40005D284000B8364000B1
S214401030050C400019264000C4364000E03640000B
S21440104000374000C52F400028374000250C4000A0
S214401050CD0E400038B505460C462B220849012CDB
S2144010608CBF00200120074B984721460120064BA5
S21440107098472860002814BF00206FF0130038BD42
S2144010809037400081064000F918400010B50D4BDF
S2144010905B68C3F308034BB1002100680A4B9847CE
S2144010A0002814BF00206FF0020010BD00231A462F
S2144010B019460068054CA047002814BF00206FF072
S2144010C0020010BD00ED00E0751C400045194000D0
S2144010D008B50068034B9847002814BF00206FF0FF
S2144010E0070008BDF11E4000036843B110B5044632
S2144010F01846044B984700232360002010BD00206C
S214401100704700BFE520400000F1080343604FF001
S214401110FF328260C3600361002303607047002390
S2144011200361704743684B609A688A609A6851606A
S21440113099600861036801330360704730B40D68F6
S214401140B5F1FF3F02D000F1080202E0026904E078
S2144011501A4653681C68A542FAD253684B60996099
S2144011608A605160086103680133036030BC704791
S21440117003694268816891608268416851605A6834
S214401180904206D0002202611A68013A1A60186836
S214401190704782685A60F5E782B0002301930F4B90
S2144011A01B68B3F1FF3F0AD04FF0800372B683F35B
S2144011B01188BFF36F8FBFF34F8F62B6FEE74FF0D5
S2144011C0800372B683F31188BFF36F8FBFF34F8FE0
S2144011D062B6019B002BFCD002B070470000402056
S2144011E008480068006880F308884FF0000080F3E5
S2144011F0148862B661B6BFF34F8FBFF36F8F00DFC0
S21440120000BF000008ED00E0DFF80C00016841F484
S214401210700101607047000088ED00E04FF0807379
S21440122040F8043C21F0010140F8081C054B40F80A
S2144012300C3C40F8202C6FF0020340F8243C443825
S214401240704700BF991140000000000000000000F9
S214401250074B19680868B0E8F04F80F30988BFF379
S2144012606F8F4FF0000080F311887047AFF3008017
S214401270CC0A40204FF0800372B683F31188BFF348
S2144012806F8FBFF34F8F62B60B4A136801331360FC
S214401290012B0FD1094B1B6813F0FF0F0AD04FF0FC
S2144012A0800372B683F31188BFF36F8FBFF34F8FFF
S2144012B062B6FEE7704700BF0000402004ED00E045
S2144012C00A4B1B6853B94FF0800372B683F31188FC
S2144012D0BFF36F8FBFF34F8F62B6FEE7013B034A03
S2144012E013600BB983F31188704700BF000040209D
S2144012F0EFF30980BFF36F8F154B1A681EF0100F7F
S21440130008BF20ED108A20E9F04F10602DE9090053
S2144013104FF0800072B680F31188BFF34F8FBFF353
S2144013206F8F62B601F0C8FA4FF0000080F3118864
S21440133009BC19680868B0E8F04F1EF0100F08BFE7
S214401340B0EC108A80F30988BFF36F8F704700BFF8
S214401350CC0A402008B54FF0800372B683F311885C
S214401360BFF36F8FBFF34F8F62B6054B984718B1E8
S2144013704FF08052034B1A60002383F3118808BD58
S2144013802526400004ED00E0054B00221A60054982
S2144013900A600549054A116007221A60704700BF77
S2144013A010E000E018E000E0DF93040014E000E006
S2144013B010B582B02D4B1A78D2B20192FF221A7025
S2144013C01B78DBB28DF803309DF80330284A03F0D3
S2144013D080031370072353609DF8033013F0800F8B
S2144013E012D0062300E00B469DF803205200D2B2EE
S2144013F08DF803209DF80320591E12F0800FF2D17D
S2144014001B4A5360042B0AD04FF0800372B683F316
S2144014101188BFF36F8FBFF34F8F62B6FEE71B0294
S21440142003F4E063124A5360019BDBB20F4A137029
S214401430104B1A6842F460021A601A6842F0604222
S2144014401A600D4B984700240C4B1C600C4B984779
S2144014500C4A136843F0404313600B4B98470B4BC2
S21440146098470B4B9847204602B010BD00E400E07A
S214401470B800402020ED00E08913400000004020E6
S2144014800912400034EF00E0E1114000B928400066
S21440149099114000EFF305830F2B11D9124A9B5C3C
S2144014A0DBB2124A12789A420AD94FF0800372B6DB
S2144014B083F31188BFF36F8FBFF34F8F62B6FEE79B
S2144014C00B4B1B6803F4E063084A526893420AD900
S2144014D04FF0800372B683F31188BFF36F8FBFF36C
S2144014E04F8F62B6FEE77047F0E300E0B80040205A
S2144014F00CED00E070B504462D4B98472D4B9B688D
S2144015008BB1002C4DD004F1080111F0070F02D02A
S21440151021F0070108314A1E40F656139A4242D837
S214401520244C236816E0234B03F1140222F00702F2
S2144015301A600020586040F65811C3F87019C3F876
S2144015406C09516003F66C11116001229A60D8E76D
S2144015501C4613465A68914202D91A68002AF7D1A7
S214401560154A934221D0256808351A6822605A6881
S214401570521A102A0CD95E187260596074680D4968
S21440158000E011460A6850688442FAD832600E601D
S2144015900A490A685B68D21A0A60094B9847284687
S2144015A070BD0025F9E70025F7E70025F5E700BF01
S2144015B0F9254000C00040202C0A4020040040206E
S2144015C04D274000D0B170B50546A0F108060C4B3B
S2144015D0984755F8044C0B4A00E01A461368596879
S2144015E08C42FAD845F8083C1660074A55F8043C41
S2144015F011680B441360054B984770BD704700BF99
S214401600F9254000C0004020040040204D274000FF
S21440161010B50446044B9847A46B044B9847B4FA5D
S21440162084F0400910BD00BF75124000C112400052
S21440163070B504461646856B026C52B90368002B9B
S2144016402AD14068174B9847002363600135A5634D
S21440165070BD6EB98068144B9847A368226C1344DB
S214401660A3606268934219D32368A3600020EDE725
S214401670C0680D4B9847236C5B42E2681A44E260B0
S21440168021688A4202D262681344E36045B1022E62
S21440169006D1013D0020D9E70020D7E70020D5E756
S2144016A00020D3E7752E40003D35400070B582B02F
S2144016B00190846C74B1A26BE36B9A4215D34FF0E1
S2144016C0800372B683F31188BFF36F8FBFF34F8FDB
S2144016D062B6FEE74FF0800372B683F31188BFF31D
S2144016E06F8FBFF34F8F62B6FEE7A26B934203D86D
S2144016F00026304602B070BD0A4694F845506DB29A
S21440170001A920460A4B98470646B5F1FF3F0AD145
S214401710636A002BEDD004F12400064B984700285E
S21440172018BF0126E5E76B1C5BB284F84530E0E75E
S21440173031164000BD2A4000026C72B110B5034617
S214401740C4681444C4604068844201D31868D860B2
S2144017500846D968014B984710BD70473D35400054
S2144017602DE9F0410546234B984795F8454064B22D
S214401770002C19DD204EDFF88C80204F08E06B6A85
S21440178093B105F12400B84760B9013C64B25CB13E
S214401790AB6C002BF3D000212846B0470028F4D08D
S2144017A0C047F2E7C047F0E7FF2385F84530144BC3
S2144017B09847104B984795F8444064B2002C12DD89
S2144017C02B6983B105F110070C4EDFF8388004E032
S2144017D0013C64B23CB12B692BB13846B047002877
S2144017E0F6D0C047F4E7FF2385F84430044B9847CB
S2144017F0BDE8F08175124000AD164000BD2A40009D
S214401800C1124000F92B400038B530B304460D46AF
S2144018101D4B98472268216CE36B03FB01F3D018FD
S21440182060600020A063A2605B1A1344E360FF235D
S21440183084F8443084F84530D5B92369FBB104F1C7
S2144018401000124B9847D0B14FF08052104B1A60A0
S214401850BFF34F8FBFF36F8F11E04FF0800372B628
S21440186083F31188BFF36F8FBFF34F8F62B6FEE7E7
S21440187004F11000074DA84704F12400A847064B82
S2144018809847012038BD00BF75124000BD2A400071
S21440189004ED00E009114000C1124000F8B550B90F
S2144018A04FF0800372B683F31188BFF36F8FBFF398
S2144018B04F8F62B6FEE7064617460D4601FB00F020
S2144018C054300B4B9847044678B11DB100F1540391
S2144018D0036000E02060E663256401212046054B56
S2144018E0984784F850700023A3642046F8BD00BF94
S2144018F0F51440000918400050B94FF0800372B606
S21440190083F31188BFF36F8FBFF34F8F62B6FEE746
S21440191088420AD24FF0800372B683F31188BFF331
S2144019206F8FBFF34F8F62B6FEE710B50C460222AC
S2144019300021034B9847034600B18463184610BD08
S2144019409D1840002DE9F04F85B00192B8B104468D
S21440195001B3022B2CD01E460F46694B98470028F1
S21440196034D1019B002B39D04FF0800372B683F3FD
S2144019701188BFF36F8FBFF34F8F62B6FEE74FF00D
S214401980800372B683F31188BFF36F8FBFF34F8F18
S21440199062B6FEE7026C002ADBD04FF0800372B6D8
S2144019A083F31188BFF36F8FBFF34F8F62B6FEE7A6
S2144019B0E26B012ACFD04FF0800372B683F31188D2
S2144019C0BFF36F8FBFF34F8F62B6FEE70025DFF899
S2144019D05C81DFF85CA1DFF8349141E00025F6E752
S2144019E0324639462046474B9847A36C93B131461A
S2144019F02046454B984738B14FF08052434B1A60CB
S214401A00BFF34F8FBFF36F8F414B9847012005B010
S214401A10BDE8F08F636A73B104F124003D4B9847EC
S214401A200028F1D04FF08052384B1A60BFF34F8FEA
S214401A30BFF36F8FE8E70028E6D04FF08052334B75
S214401A401A60BFF34F8FBFF36F8FDDE7304B984779
S214401A500020DCE72046304B9847304B984701251E
S214401A60C047A26BE36B9A42BAD3022EB8D0019B12
S214401A70002BEBD00DB902A8D047254B9847284BF2
S214401A809847C04794F844305BB2B3F1FF3F02D169
S214401A90002384F8443094F845305BB2B3F1FF3FFE
S214401AA002D1002384F84530194B984701A902A873
S214401AB01C4B9847E0B9C047D4F838B0E56B144B98
S214401AC09847AB45C6D1019904F11000164B98478C
S214401AD02046114B9847114B98470028BFD14FF0EE
S214401AE08053C9F80030BFF34F8FBFF36F8FB6E710
S214401AF02046094B9847094B9847002087E700BF88
S214401B00B12D400031164000AD16400004ED00E017
S214401B10C1124000BD2A4000611740004D274000DA
S214401B20F9254000652B4000352A400075124000DC
S214401B30512B400038B5024600210120064B9847FD
S214401B40044638B1002141600160C1600B460A4638
S214401B50024DA847204638BD9D1840004519400014
S214401B602DE9F843002839D00446002941D0022BFD
S214401B704DD01F46904689463A4B9847EFF311861C
S214401B804FF0800372B683F31188BFF36F8FBFF3B5
S214401B904F8F62B6A26BE36B9A4201D3022F58D1A5
S214401BA094F845506DB23A46494620462E4B9847E3
S214401BB0B5F1FF3F47D1A36C002B36D039462046BF
S214401BC02A4B9847B8F1000F45D0002843D0012053
S214401BD0C8F8000086F31188BDE8F8834FF080030C
S214401BE072B683F31188BFF36F8FBFF34F8F62B621
S214401BF0FEE7006C0028BAD04FF0800372B683F33D
S214401C001188BFF36F8FBFF34F8F62B6FEE7E06B6E
S214401C100128AED04FF0800372B683F31188BFF32D
S214401C206F8FBFF34F8F62B6FEE7636AABB104F1C6
S214401C3024000F4B9847B8F1000F10D078B1012020
S214401C40C8F80000C6E76B1C5BB284F8453001203C
S214401C50C0E70020BEE70120BCE70120BAE701202C
S214401C60B8E700BF9514400031164000AD1640005E
S214401C70BD2A400070B170B50446036CABB14FF05E
S214401C80800372B683F31188BFF36F8FBFF34F8F15
S214401C9062B6FEE74FF0800372B683F31188BFF357
S214401CA06F8FBFF34F8F62B6FEE703683BB30E46B7
S214401CB0264B9847EFF311854FF0800372B683F3B7
S214401CC01188BFF36F8FBFF34F8F62B6A26BE36B83
S214401CD09A4233D294F845305BB20132A263B3F1F4
S214401CE0FF3F25D1A36CC3B100212046184B98472F
S214401CF036B328B30120306085F3118870BD436841
S214401D00002BD4D04FF0800372B683F31188BFF314
S214401D106F8FBFF34F8F62B6FEE7636A93B104F1ED
S214401D2024000C4B98477EB170B101203060E3E749
S214401D3001335BB284F845300120DDE70020DBE765
S214401D400120D9E70120D7E70120D5E795144000C8
S214401D50AD164000BD2A40002DE9F04784B0019200
S214401D6090B10446D9B10E46544B984728BB019BC8
S214401D705BB34FF0800372B683F31188BFF36F8F67
S214401D80BFF34F8F62B6FEE74FF0800372B683F321
S214401D901188BFF36F8FBFF34F8F62B6FEE7036CB9
S214401DA0002BE0D04FF0800372B683F31188BFF368
S214401DB06F8FBFF34F8F62B6FEE70027DFF82881AC
S214401DC0DFF828A1DFF8009131E00027F6E731463A
S214401DD020463B4B9847013DA563236963B104F118
S214401DE01000384B984738B14FF08052364B1A6047
S214401DF0BFF34F8FBFF36F8F344B9847012004B02B
S214401E00BDE8F087314B98470020F8E702A8D04756
S214401E1016E0002384F844301DE0002384F8453063
S214401E201FE020462A4B98472A4B98470127C04731
S214401E30A56B002DCBD1019B002BE3D0002FE5D026
S214401E40224B9847244B9847C04794F844305BB29F
S214401E50B3F1FF3FDDD094F845305BB2B3F1FF3FBE
S214401E60DBD01A4B984701A902A81C4B9847C8B923
S214401E7020461B4B98470028D3D0019904F12400F4
S214401E80184B98472046124B9847124B98470028C5
S214401E90CCD14FF08053C9F80030BFF34F8FBFF31B
S214401EA06F8FC3E720460A4B98470A4B9847204611
S214401EB00B4B98470028B9D00020A0E7B12D400032
S214401EC039174000BD2A400004ED00E0C112400032
S214401ED0611740004D274000F9254000652B400023
S214401EE011164000352A400075124000512B400024
S214401EF02DE9F04385B0019168B10446036CABB15F
S214401F004FF0800372B683F31188BFF36F8FBFF331
S214401F104F8F62B6FEE74FF0800372B683F31188A8
S214401F20BFF36F8FBFF34F8F62B6FEE75E4B9847A7
S214401F3060B9019B93B14FF0800372B683F311886A
S214401F40BFF36F8FBFF34F8F62B6FEE700252F4675
S214401F50564EDFF88C91DFF8608152E000252F4620
S214401F60F6E7013BA363236813B9514B984760607B
S214401F70236963B104F110004E4B984738B14FF0D7
S214401F8080524D4B1A60BFF34F8FBFF36F8F4B4B52
S214401F9098470125284605B0BDE8F08355B14FF077
S214401FA0800372B683F31188BFF36F8FBFF34F8FF2
S214401FB062B6FEE7414B9847ECE702A8C84729E0DF
S214401FC0002384F8443030E0002384F8453032E083
S214401FD0B04760683A4B98470546384B98473AE0D2
S214401FE02046384B9847384B984709E02046354BB3
S214401FF09847354B98472046344B984700283FD162
S2144020000127B047A36B002BABD1019B002BC5D05B
S214402010002FD2D0294B98472D4B9847B04794F87D
S21440202044305BB2B3F1FF3FCAD094F845305BB260
S214402030B3F1FF3FC8D0214B984701A902A8254BD2
S21440204098470028D2D12046204B98470028C7D032
S2144020502368002BBCD0019904F124001E4B9847FE
S2144020602046184B9847184B98470028C8D14FF041
S2144020708053C8F80030BFF34F8FBFF36F8FBFE772
S214402080002D87D0094B9847636A53B1236B196874
S214402090C1F105016068114B9847084B98470025E9
S2144020A078E70021F6E700BFB12D400075124000EA
S2144020B0ED304000BD2A400004ED00E0C112400073
S2144020C0D12D4000611740004D27400011164000BA
S2144020D0F9254000652B4000352A4000152F40006A
S2144020E0512B400008B550B94FF0800372B683F3C9
S2144020F01188BFF36F8FBFF34F8F62B6FEE7014B79
S214402100984708BDC515400070B504460D461646AE
S214402110124B984794F844305BB2B3F1FF3F0DD072
S21440212094F845305BB2B3F1FF3F0BD00C4B984769
S214402130A36B5BB120460B4B984770BD002384F8D9
S2144021404430EDE7002384F84530EFE73246294631
S21440215004F12400044B9847ECE700BF751240009A
S214402160C112400061174000752A400060B14169C5
S2144021700D4A914213D1806A02F11403984210D05E
S214402180B0FA80F0400970474FF0800372B683F390
S2144021901188BFF36F8FBFF34F8F62B6FEE7002004
S2144021A070470020704700BF340A4020064A074860
S2144021B04FF08051936A012BFCD90160BFF34F8FDB
S2144021C0BFF36F8FF6E700BF340A402004ED00E00F
S2144021D0094BD3F88C301B6843B1074BD3F88C209F
S2144021E0D268D2685268C3F8902070474FF0FF32EA
S2144021F0014BC3F890207047340A402070B504461F
S2144022000E46194BD3F89450D3F898000430174B29
S2144022109847B4F1FF3F00D1AEB92C44124BD3F8E7
S21440222098305C60A54215D80F4DD5F88C00D5F88F
S214402230981004310E4B9847D5F890309C4201D206
S214402240C5F8904070BD0848D0F898100431094B46
S214402250984770BD044BD3F89C00D3F898100431CF
S214402260034B984770BD00BF340A402071114000B0
S2144022703D114000251140002DE9F04F83B08346C4
S2144022800D460193DDF834A096003046664B9847DD
S214402290002800F0968007465420634B9847044633
S2144022A0002800F08B8007633246A52138465F4BF6
S2144022B09847043E236B1E4426F007062B7884F886
S2144022C034302B785BB12B4604F13502E91D587843
S2144022D002F8010B13F8010F08B19942F7D1002715
S2144022E084F83B700C9D042D28BF0425E562656488
S2144022F0A76404F104084046DFF85491C84704F147
S2144023001800C8472461C5F10505A5616462E76405
S21440231084F85070019A59463046454B984720609D
S214402320BAF1000F01D0CAF80040424B9847424BE2
S214402330D3F8A0200132C3F8A020D3F89830002B61
S21440234042D03D4BD3F8CC304BB93B4BD3F89830CA
S214402350DA6AE36A9A4202D8374BC3F89840364A5C
S214402360D2F8D0300133C2F8D030E363E36AD2F813
S214402370D420934202D9304AC2F8D4302E4D05F1CB
S214402380280003EB8303414600EB83002B4B984722
S2144023902B4B9847D5F8CC30002B3FD0D5F898300B
S2144023A0DA6AE36A9A423DD24FF08052254B1A6071
S2144023B0BFF34F8FBFF36F8F012030E03846224B7C
S2144023C098474FF0FF302AE01B4BC3F89840D3F8AD
S2144023D0A030012BC3D1184D05F128001B4EB04745
S2144023E005F13C00B04705F15000B04705F16400E8
S2144023F0B04705F17800B04705F1A4094846B04714
S21440240005F1B8073846B04705F11400B0472846EE
S214402410B047C5F88C90C5F89C70A0E7012003B083
S214402420BDE8F08F0120FAE7F51440005335400030
S2144024301D12400075124000340A4020251140000D
S214402440C112400004ED00E0C515400009114000EF
S2144024501F11400038B5C8B10446184BD3F8983021
S214402460984224D0164B98476569164B9847134BAD
S214402470D3F88C309D421CD0104BD3F89C309D42F4
S21440248019D00E4B9D420CD0012038BD4FF0800332
S21440249072B683F31188BFF36F8FBFF34F8F62B668
S2144024A0FEE7A36A002B0CBF0320022038BD0020A5
S2144024B038BD022038BD022038BD00BF340A402057
S2144024C075124000C112400078B170B504461F4BEB
S2144024D0D3F89830984207D01D4B984720461D4B5E
S2144024E0984768B91C4B984770BD4FF0800372B64A
S2144024F083F31188BFF36F8FBFF34F8F62B6FEE74B
S214402500261D3046154B9847E36A104AD2F8D42029
S214402510934202D90D4AC2F8D4300C4D05F128003A
S21440252003EB8303314600EB83000D4B9847D5F809
S2144025309830E26ADB6A9A42D4D34FF08052094B15
S2144025401A60BFF34F8FBFF36F8FCBE7340A40203C
S214402550751240006D214000C112400071114000CC
S2144025602511400004ED00E010B582B01B4B0193EE
S2144025700023009340221A491A481B4CA0470128C2
S21440258004D0B0F1FF3F1DD002B010BD174B9847A6
S2144025900128F6D14FF0800372B683F31188BFF35B
S2144025A06F8FBFF34F8F62B6114B4FF0FF32C3F8B9
S2144025B090200122C3F8CC200022C3F894200D4B73
S2144025C09847E1E74FF0800372B683F31188BFF374
S2144025D06F8FBFF34F8F62B6FEE700BF100B4020F1
S2144025E0C8374000AD21400079224000A13140006C
S2144025F0340A4020B1134000034AD2F8D8300133A1
S214402600C2F8D830704700BF340A4020014BD3F898
S21440261094007047340A4020014BD3F8A00070471E
S214402620340A40202DE9F047444BD3F8D830002BED
S21440263074D1424BD3F894600136C3F89460F6B92F
S214402640D3F88C301B6853B14FF0800372B683F3D7
S2144026501188BFF36F8FBFF34F8F62B6FEE7374BDD
S214402660D3F88C20D3F89C10C3F88C10C3F89C2069
S214402670D3F8E0200132C3F8E020314B98472F4B87
S214402680D3F890309E420DD200242C4BD3F898209D
S214402690D26A02EB820203EB82039B6A022B28BFBC
S2144026A0012442E00024254DDFF89C8005F1280AED
S2144026B017E04FF0FF32214BC3F89020E5E71F4A62
S2144026C0C2F89030E1E700EB800049460AEB800014
S2144026D01C4B9847D5F89830FA6ADB6A9A4228BF6E
S2144026E00124D5F88C301B68002BE2D0D5F88C300E
S2144026F0DB68DF687B689E42E1D307F10409484601
S214402700C047BB6A13B107F11800C047F86AD5F84E
S214402710D4309842D7D9C5F8D400D4E7074AD2F87F
S214402720E4300133C2F8E4300024044BD3F8E830F8
S214402730002B0CBF20460120BDE8F087340A40201D
S214402740D121400025114000711140003B4BD3F889
S214402750D83053B94FF0800372B683F31188BFF375
S2144027606F8FBFF34F8F62B6FEE72DE9F041344BD3
S2144027709847324BD3F8D820013AC3F8D820D3F83C
S214402780D830002B55D12D4BD3F8A0302BB9002490
S2144027902C4B98472046BDE8F0810025274C2A4E12
S2144027A004F128086369FBB1236ADD6805F1180067
S2144027B0B0472F1D3846B047E86AD4F8D430984220
S2144027C001D9C4F8D40000EB8000394608EB8000FD
S2144027D01E4B9847D4F89830EA6ADB6A9A42E1D3AF
S2144027E00123C4F8E830DDE70DB1194B9847134B89
S2144027F0D3F8E4407CB1174F1E46012501E0013C6A
S21440280005D0B8470028FAD0C6F8E850F7E70022C7
S2144028100A4BC3F8E420094BD3F8E8305BB14FF0DD
S21440282080520D4B1A60BFF34F8FBFF36F8F01245A
S214402830AEE70024ACE70024AAE700BF340A4020F5
S21440284075124000C1124000711140002511400031
S214402850D12140002526400004ED00E010B5C0B16F
S2144028600446104BD3F8D83053B14FF0800372B6BD
S21440287083F31188BFF36F8FBFF34F8F62B6FEE7C7
S214402880094B984700212046084B9847084B9847E5
S21440289038B94FF08052074B1A60BFF34F8FBFF3E3
S2144028A06F8F10BD340A4020F9254000FD214000BE
S2144028B04D27400004ED00E0264BD3F8D8300BBB44
S2144028C0244A0023C2F8E830D2F8D43003EB830120
S2144028D002EB8102926AD2B94BB11E49013B03EB2F
S2144028E0830201EB8202926A8AB9002BF6D14FF03E
S2144028F0800372B683F31188BFF36F8FBFF34F8F99
S21440290062B6FEE70122134BC3F8E820704710B4C6
S214402910104A9900C81802EB8000C46A6468C46212
S21440292019440246303294420DD00A4A03EB8301E2
S21440293002EB8101C96AC968C2F89810C2F8D4305F
S2144029405DF8044B70476068024A02EB8102D06231
S214402950EBE700BF340A402038B504462D4B984775
S214402960F4B1251D28462C4B9847A36A1BB104F1A9
S2144029701800294B984729462848294B984794F8E9
S2144029805030DBB2012B0FD0264B9847234BD3F861
S214402990CC306BB9214BD3F898309C420FD038BD21
S2144029A01E4BD3F89840DCE7002384F85030EBE722
S2144029B0184B98471C4B98471A4B9847EAE7174BD3
S2144029C0D3F8CC30BBB1154BD3F8D83053B14FF019
S2144029D0800372B683F31188BFF36F8FBFF34F8FB8
S2144029E062B6FEE74FF08052104B1A60BFF34F8F2F
S2144029F0BFF36F8F38BD094B1A68D3F8A0309A42A0
S214402A0004D10022054BC3F8982038BD084B9847A0
S214402A10C5E700BF7512400071114000340A4020DF
S214402A2025114000C1124000D121400004ED00E0D5
S214402A30B928400050B94FF0800372B683F311882E
S214402A40BFF36F8FBFF34F8F62B6FEE710B50C46ED
S214402A50054BD3F898101831044B9847012120466F
S214402A60034B984710BD00BF340A40203D1140003C
S214402A70FD21400038B580B114460D460C4BD3F8C6
S214402A80981018310B4B9847002C21460CBF28460F
S214402A904FF0FF30084B984738BD4FF0800372B672
S214402AA083F31188BFF36F8FBFF34F8F62B6FEE795
S214402AB0340A402025114000FD21400038B5C36847
S214402AC0DC684CB304F1180528461C4B98471C4B51
S214402AD0D3F8D8305BBB251D2846184B9847E06A8C
S214402AE0174BD3F8D430984202D9154BC3F8D400CC
S214402AF000EB80002946134B03EB8000124B9847AF
S214402B000F4BD3F89830E26ADB6A9A4214D9012018
S214402B100B4BC3F8E80038BD4FF0800372B683F322
S214402B201188BFF36F8FBFF34F8F62B6FEE729461B
S214402B300648054B9847E3E7002038BD7111400032
S214402B40340A40205C0A402025114000480A4020B4
S214402B50034BD3F8E0200260D3F8943043607047CC
S214402B60340A4020B8B170B50546F9B10C461E4B44
S214402B7098471E4BD3F8942069682368B3F1FF3F0B
S214402B8030D01A48D0F8E0002E68864219D08A42E3
S214402B9017D301241BE04FF0800372B683F31188ED
S214402BA0BFF36F8FBFF34F8F62B6FEE74FF08003E1
S214402BB072B683F31188BFF36F8FBFF34F8F62B641
S214402BC0FEE7521A9A4206D3002323600124084B9C
S214402BD09847204670BD9B1A23602846054B984769
S214402BE00024F4E70024F2E775124000340A40203F
S214402BF0C1124000512B40000122024BC3F8E8208E
S214402C00704700BF340A402070B50D46164604464D
S214402C10D8B12C6004F134026A60E26A2A61226B01
S214402C20EA61E26BAA60626C6A610022AA61052BC7
S214402C301BD0184AD2F8982094420AD02B73032B04
S214402C400AD0BEB900232B8470BD124AD2F89840F1
S214402C50DFE700232B73F4E70F4B9847A36A0BB1CB
S214402C6002232B730D4B9847EBE720460C4B9847B7
S214402C702873E6E7206B0378A52B08D1431C191A66
S214402C8013F8012BA52AFAD08908298470BD0021A3
S214402C90FAE700BF340A4020F92540004D2740009F
S214402CA0552440002DE9F04F83B00B6843B34B6882
S214402CB05B684B6001F1080843450BD001920C4617
S214402CC04B68D3F80CB0054600274FF0010ADFF8F2
S214402CD03C900DE0CB684B60F0E76368DE68019B94
S214402CE0524629463046C84701372435B34508D0B2
S214402CF063685B6863609845EFD1E3686360ECE7C0
S214402D000027384603B0BDE8F08F00BF092C4000CE
S214402D102DE9F04706460C461746214B9847214B6F
S214402D20D3F8A030A34239D81E4B03F1780503F1FF
S214402D30140800244FF0010ADFF86C9004EBC4003E
S214402D405246294606EB8000C8470444143D454594
S214402D50F4D1DFF85080D8F88C1004EBC40002227F
S214402D6006EB8000104DA8470444D8F89C1004EBAE
S214402D70C400022206EB8000A847044404EBC400CB
S214402D800322414606EB8000A84704440FB10023C7
S214402D903B60064B98472046BDE8F0870024F8E79E
S214402DA0F9254000340A4020A52C40004D2740001D
S214402DB0064BD3F8CC303BB1044BD3F8D830002B7D
S214402DC00CBF02200020704701207047340A402084
S214402DD0002845D038B50546C26A2249D1F8981031
S214402DE0C96A8A4232D28169002906DB1D49D1F878
S214402DF09810C96AC1F10501816102EB82021A4945
S214402E0001EB82026969914206D0164AD2F89820B0
S214402E10D26AEA62012038BD2C1D2046134B9847E3
S214402E20104BD3F89820D06AE862D3F8D430984252
S214402E3002D90C4BC3F8D40000EB800021460A4B65
S214402E4003EB80000A4B9847012038BD054AD2F86C
S214402E509820406CD36A98422CBF0020012038BD91
S214402E6000207047340A40205C0A40207111400020
S214402E7025114000002840D038B50446214AD2F8F3
S214402E80982090420AD04FF0800372B683F31188A0
S214402E90BFF36F8FBFF34F8F62B6FEE7826C52B9B7
S214402EA04FF0800372B683F31188BFF36F8FBFF382
S214402EB04F8F62B6FEE7013A8264C06A616C884210
S214402EC01DD0E2B9251D28460F4B9847606CE0623E
S214402ED0C0F10503A3610B4BD3F8D430984202D916
S214402EE0084BC3F8D40000EB80002946074B03EBA1
S214402EF08000074B9847012038BD002070470020CF
S214402F0038BD00BF340A4020711140005C0A4020A2
S214402F102511400000284CD038B50446806C50B986
S214402F204FF0800372B683F31188BFF36F8FBFF301
S214402F304F8F62B6FEE7626C8A4238BF0A46E16A45
S214402F40012835D1914233D01A48D0F898008442AF
S214402F500AD14FF0800372B683F31188BFF36F8FA8
S214402F60BFF34F8F62B6FEE7E262A069002802DB3D
S214402F70C2F10502A26101EB81010F4A02EB810119
S214402F8062698A4214D1251D28460C4B9847E06A50
S214402F90084BD3F8D430984202D9064BC3F8D40035
S214402FA000EB80002946044B03EB8000044B984717
S214402FB038BD7047340A40205C0A402071114000FA
S214402FC0251140002DE9F04784B0044600230370E5
S214402FD03E4BD3F8A0200392D3F8A00000EBC000ED
S214402FE080003B4B984700286DD005460399002249
S214402FF0384B9847039000230293029A039B9A42C9
S2144030005ED24FF00008DFF8E090334E44E04227AF
S21440301006E0532704E0442702E0474600E05227F4
S214403020029B03EBC30305EB830359682046C8475E
S2144030302046B047062807D82044E21D202300F843
S214403040013B8242FBD1072004EB000A04F80080D3
S214403050029B029A029903EBC30305EB83031B69A9
S21440306001EBC10105EB81018968019102EBC202C7
S21440307005EB8202128C00923A4618495046184C8C
S214403080A0475046B0470AEB0004029B0133029328
S214403090029A039B9A4213D2029B03EBC30305EBAF
S2144030A083031B7B013B032BB7D801A252F823F0C6
S2144030B01F3040000F3040001330400017304000B3
S2144030C02846084B984704B0BDE8F087340A4020AD
S2144030D0F5144000112D400073354000D0374000B5
S2144030E0CD0E4000C515400063354000064BD3F872
S2144030F098302BB1044BD3F89820936C01339364EB
S214403100014BD3F898007047340A402008B5416018
S214403110006191420CD8D21A83699A4201D30120A9
S21440312008BD011D094B1868094B9847002008BD8B
S2144031309A4203D2994201D3012008BD011D034B98
S2144031405868034B9847002008BD00BF200B40201E
S2144031503D114000F8B50D4B98470D4B9B6813B199
S2144031600C4B9847F8BD0A4C04F10C0630460A4F03
S214403170B84704F120052846B84766602560002217
S2144031800C210220054B9847A060E9E775124000E5
S214403190200B4020C1124000091140009D184000FD
S2144031A010B582B00E4B98470E4B9B6863B10E4BE2
S2144031B0019302230093002340220C490C480D4CF7
S2144031C0A04708B102B010BD4FF0800372B683F33B
S2144031D01188BFF36F8FBFF34F8F62B6FEE700BF15
S2144031E055314000200B4020540B4020E037400033
S2144031F01933400079224000D8B130B585B0154625
S2144032000446154A906820B31A46019102950394E5
S214403210052919DC114B984702284FF000030CBFD4
S214403220089A1A4601A90C4880680D4CA04705B07C
S21440323030BD4FF0800372B683F31188BFF36F8FB3
S214403240BFF34F8F62B6FEE7002301A9054CA047A7
S214403250EDE70020EBE700BF200B4020B12D4000FB
S21440326045194000611B40002DE9F04782B080467A
S214403270244B98470746244B9B6B98421BD300230E
S214403280C8F80030204B9F63384602B0BDE8F08750
S214403290002100910B46524620461C4CA04760B980
S2144032A04FF0800372B683F31188BFF36F8FBFF37E
S2144032B04F8F62B6FEE7144D154E6B681A68C2B162
S2144032C0DB68D3F800A0DC6804F104094846B04740
S2144032D0636A20469847E369012BEED1A3695344BD
S2144032E09A45D5D26360246149466868094B984739
S2144032F0E3E7054A1168516013600123C8F80030BF
S214403300C0E700BF0D264000200B4020F9314000AA
S214403310711140003D1140002DE9F04786B06A4CDF
S2144033206A4FDFF8C891DFF8C88163681A68002AD8
S21440333000F0BB80DB681D68B84703A8644B98471D
S2144033400646039B002B43D1A84211D20022A91B5C
S214403350A068604B9847604B984700283AD14FF09A
S2144033608053C9F80030BFF34F8FBFF36F8F31E003
S214403370594B98476368DB68D3F80CA00AF1040001
S214403380C047DAF81C30012B04D0DAF82430504617
S21440339098471FE0DAF818102B4632462944504624
S2144033A04E4EB0470028F0D0002100910B462A46EA
S2144033B050464B4DA8470028E7D14FF0800372B6E1
S2144033C083F31188BFF36F8FBFF34F8F62B6FEE76C
S2144033D0414B9847434D002203A9A068A8470028C0
S2144033E0A3D0039B002BF6DB059E73690BB1301D03
S2144033F0C04702A8364B9847039B092BEBD801A23F
S21440340052F823F02D3440002D3440002D34400037
S214403410D733400079344000A33440002D34400078
S2144034202D344000D733400079344000049DB169C4
S2144034302B46024629443046284DA8470028C9D086
S214403440736A30469847F369012BC3D1B2690021AD
S21440345000910B46049802443046214DA847002868
S214403460B8D14FF0800372B683F31188BFF36F8FE5
S214403470BFF34F8F62B6FEE70499B16131B10346A0
S214403480024601443046154DA847A3E74FF0800357
S21440349072B683F31188BFF36F8FBFF34F8F62B658
S2144034A0FEE73046104B984794E7B84703A8084BCA
S2144034B098470646039B002B8AD123681A68B2FABF
S2144034C082F25209002542E7200B4020F9254000B1
S2144034D069324000092140004D2740000D31400030
S2144034E0F9314000591D4000C515400004ED00E08C
S2144034F07111400070B50D4E0D4CA41BA410002554
S214403500A54209D10B4E0C4C00F06EF9A41BA4103A
S2144035100025A54205D170BD56F82530984701359F
S214403520EEE756F8253098470135F2E7F437400085
S214403530F4374000F4374000F837400010B5431EDB
S2144035400A44914200D110BD11F8014B03F8014FD7
S214403550F7E702440346934200D1704703F8011B45
S214403560F9E7034611F8012B03F8012B002AF9D19D
S2144035707047034613F8012B002AFBD1181A01386E
S214403580704700002E2E2F68616C2F7372632F6871
S214403590616C5F696F2E63002E2E2F68616C2F73EF
S2144035A072632F68616C5F75736172745F6F732EA0
S2144035B0630000002E2E2F68616C2F7574696C7343
S2144035C02F7372632F7574696C735F72696E67626E
S2144035D075666665722E630001000000C008100024
S2144035E0D00304002E2E2F68706C2F757361727492
S2144035F02F68706C5F75736172742E6300000000F4
S21440360000CA9A3B00E1F5058096980040420F00BC
S214403610A086010010270000E803000064000000B8
S2144036200A000000010000002D204C454420626C3A
S214403630696E6B207461736B206163746976652E66
S2144036400D0A00002D204C4544204F464620616E12
S2144036506420626C696E6B207461736B2073757343
S21440366070656E6465642E0D0A0000002D204D6F57
S2144036706E69746F72207461736B206163746976CF
S214403680652E0D0A000000002D204D6F6E69746F88
S21440369072207461736B2073757370656E646564B5
S2144036A02E0D0A004D6F6E69746F72004C65640093
S2144036B0436F6E736F6C65002563256325632563D2
S2144036C0000000002D2D2D204E756D626572206F16
S2144036D066207461736B733A2025750D0A000000EE
S2144036E03E205461736B730953746174650950725C
S2144036F06909537461636B094E756D0D0A000000CD
S2144037002A2A2A2A2A2A2A2A2A2A2A2A2A2A2A2AD4
S2144037102A2A2A2A2A2A2A2A2A2A2A2A2A2A2A2AC4
S2144037202A2A2A0D0A0000002D2D2D20507265737E
S214403730732061206B65793A0D0A20613A204C452A
S2144037404420626C696E6B207461736B2061637495
S2144037506976650D0A20733A204C4544204F46460C
S21440376020616E6420626C696E6B207461736B209E
S21440377073757370656E640D0A206F746865727336
S2144037803A204563686F206261636B0D0A23000030
S2144037902E2E2F746869726470617274792F525439
S2144037A04F532F6672656572746F732F46726565E8
S2144037B052544F535631302E302E302F72746F7312
S2144037C05F706F72742E630049444C4500000000E1
S2144037D00925630925750925750925750D0A000013
S2144037E0546D722053766300F8B500BFF8BC08BC31
S2144037F09E4670478D014000F8B500BFF8BC08BC37
S20C4038009E4670476901400036
S20C403808AAAAAAAA580900006A
S804400000BB
